:020000040800F2
:10000000F00B0020BD3400088707000889070008AE
:100010008D07000891070008950700080000000000
:100020000000000000000000000000009907000828
:100030009B070008000000009D0700089F070008BC
:10004000D7340008D7340008D7340008D314000888
:10005000D7340008D7340008D7340008D734000854
:10006000D7340008D7340008D7340008D734000844
:10007000D7340008D7340008D7340008D734000834
:10008000D7340008D7340008D7340008D734000824
:10009000D7340008D7340008D7340008D734000814
:1000A000D7340008D7340008D7340008D734000804
:1000B000D73400088B340008D7340008D734000840
:1000C000D7340008D7340008D7340008D7340008E4
:1000D000D7340008F733000815160008D734000895
:1000E000D7340008D7340008D7340008D7340008C4
:1000F000D7340008D7340008D7340008D7340008B4
:10010000D7340008D7340008D7340008D7340008A3
:10011000D7340008D7340008D7340008D734000893
:10012000D7340008D7340008D7340008D734000883
:1001300000F002F800F090F80AA090E8000C824469
:100140008344AAF10107DA4501D100F085F8AFF246
:10015000090EBAE80F0013F0010F18BFFB1A43F0A5
:1001600001031847D4740000F4740000103A24BF4F
:1001700078C878C1FAD8520724BF30C830C144BF0C
:1001800004680C607047000000230024002500264E
:10019000103A28BF78C1FBD8520728BF30C148BFEA
:1001A0000B6070476E2905F04D84702905F0A1851C
:1001B000662907F0C781652907F0C481672907F020
:1001C000C1816129AFF3008003681B0A28BF41F099
:1001D0008001692905F04682642905F0438275296A
:1001E00005F040826F2905F02F85782905F06D858F
:1001F000E92905F0C984E42905F0C684F52905F04C
:10020000C384EF2905F02C85F82905F06C85036877
:10021000DB0928BF41F08001632905F0D1877329EC
:1002200005F0D687E32905F0E187F32905F0E68795
:10023000002070471FB506F037F8040000200021A9
:1002400006F01EFD401C60600020002106F002FD4B
:10025000E0601FBD10B510BD05F0F8FF1146FFF7B7
:10026000E9FF00F03CF806F0D1F803B4FFF7F2FF25
:1002700003BC03F02FF8000010B502F0C1FF02F03C
:100280004BFF00F051FC00F0C9FC41F61F41092072
:1002900003F0CEF802F0B4FF4FF4A06003F0B2FE1A
:1002A0004FF4165003F025F84FF4614001F0E1F9E6
:1002B00001F0AFF801F06CFA00F0F6FE00F0AEFCD1
:1002C00000F0ACFCFEA22821002000F0EEFD02F0C0
:1002D0002FFD02F020FA0120FB49086010BDFFF756
:1002E000CBFF02F02FF84DE2F848007808B902F091
:1002F00001FEF64800780128F5D10020F349087086
:10030000F34803F04DF8F2480078132860D1F04824
:100310004078BA285CD1EE488078972858D1EC48CC
:10032000C078212854D1EB480078002850D100F043
:1003300075FC0120E74908700020C870E648006895
:100340006030E5490860E5A20021084600F0ADFDF7
:10035000E6A20021022000F0A8FDDF4800684FF46B
:100360007A71B0FBF1F201FB12006421B0FBF1F0F5
:100370003030E2490870D84800686421B0FBF1F2DF
:1003800001FB12000A21B0FBF1F03030DB4948706C
:10039000D14800680A21B0FBF1F201FB12003030B5
:1003A000D64988700020C870D5A20021042000F032
:1003B0007CFDD24A2821042000F077FD0020C249AC
:1003C0000860C82002F059FF0120D049C1F8A001FF
:1003D000BF480078132860D1BD48407877285CD1A9
:1003E000BB488078DD2858D1B948C078212854D13D
:1003F000B8484078002850D100F010FC0120B549E1
:1004000048700020C870B44800681C30B2490860C9
:10041000BFA20021084600F048FDC1A20021022031
:1004200000F043FDAC4800684FF47A71B0FBF1F284
:1004300001FB12006421B0FBF1F03030AF490870CD
:10044000A54800686421B0FBF1F201FB12000A210B
:10045000B0FBF1F03030A94948709F4800680A218C
:10046000B0FBF1F201FB12003030A449887000208B
:10047000C870A3A20021042000F017FD9F4A282184
:10048000042000F012FD00208F490860C82002F00F
:10049000F4FE01209D49C1F8A0018D480078132881
:1004A00060D18B48407868285CD1894880780E28D4
:1004B00058D18748C078212854D1864880780028B0
:1004C00050D100F0ABFB0120824988700020C87039
:1004D000814800684F308049086095A20021084695
:1004E00000F0E3FC96A20021022000F0DEFC7A4836
:1004F00000684FF47A71B0FBF1F201FB1200642145
:10050000B0FBF1F030307D49087073480068642119
:10051000B0FBF1F201FB12000A21B0FBF1F0303028
:10052000764948706C4800680A21B0FBF1F201FB83
:1005300012003030714988700020C87070A200210C
:10054000042000F0B2FC6D4A2821042000F0ADFC2C
:1005500000205D490860C82002F08FFE01206B4931
:10056000C1F8A0015A4800785D287CD158484078ED
:10057000E528FAD1564880786328F6D15448C078E7
:10058000A928F2D15348C0780028EED10120514962
:10059000C87000F043FB00204E4908704870887016
:1005A0006BA20021084600F080FC4B4800684FF425
:1005B0007A71B0FBF1F201FB12006421B0FBF1F0A3
:1005C00030304E490870444800686421B0FBF1F2B5
:1005D00001FB12000A21B0FBF1F0303047494870AE
:1005E0003D4800680A21B0FBF1F201FB12003030F7
:1005F000424988700020C8705AA20021042000F0EF
:1006000054FC3E4A2821042000F04FFC3248006888
:10061000B0F5FA6F06D2564800682F490968401AAB
:10062000534908605248006842F21071B0FBF1F281
:1006300001FB12004FF47A71B0FBF1F030302F491A
:1006400008704B4800684FF47A71B0FBF1F201FB7F
:1006500012006421B0FBF1F0303028494870444862
:100660000068642100E08DE0B0FBF1F201FB1200B4
:100670000A21B0FBF1F03030204988703C48006816
:100680000A21B0FBF1F201FB120030301B49C870A7
:100690000020087137A20021062000F006FC174A4E
:1006A0002821062000F001FC00200B4908600649C3
:1006B00008604FF47A7002F0E0FD012013495FE01A
:1006C000C7EBCBA2BFA80000A0812142820000207E
:1006D0007E0000201800002010000020CEEFC6B7DA
:1006E000A3BAB3BFD3EE202020200000B5A5BCDB09
:1006F000A3BA3936D4AA2FBDEF000000E4030020CE
:10070000D7DCBCDB3A202020D4AA000000802142A4
:10071000CEEFC6B7A3BAC5A3C4CC202020202000AA
:10072000B5A5BCDBA3BA3238D4AA2FCFE4000000B1
:10073000CEEFC6B7A3BABACBCCD22020202020005F
:10074000B5A5BCDBA3BA3739D4AA2FCFE40000008B
:1007500020202020BBB6D3ADB9E2C1D92020202073
:1007600000000000D3A6B8B63A202020D4AA00008A
:1007700014000020D3E0B6EE3A202020D4AA0000D6
:10078000C1F8A001B0E5704700BFFEE700BFFEE77B
:1007900000BFFEE700BFFEE7704770477047704735
:1007A0000CB50020019000906C48006840F4803047
:1007B0006A49086000BF6948006800F40030009092
:1007C0000198401C0190009818B90198B0F5A06FED
:1007D000F1D16248006800F4003010B101200090AF
:1007E00001E0002000900098012843D15C48006897
:1007F00040F010005A4908600846006820F00300E5
:1008000008600846006840F00200086053484068ED
:10081000524948600846406848600846406840F4CD
:10082000806048600846406820F47C1048600846B4
:10083000406840F4E81048600846006840F0807066
:10084000086000BF4548006800F000700028F9D03B
:100850004248406820F0030040494860084640682C
:1008600040F00200486000BF3C48406800F00C00C7
:100870000828F9D10CBD10B5FFF792FF10BD10B5D7
:100880003648006840F00100344908600846406876
:1008900034490840314948600846006832490840F8
:1008A0002E4908600846006820F480200860084649
:1008B000406820F4FE0048604FF41F008860FFF796
:1008C000DAFF4FF000602949086010BD10B5002123
:1008D00000200022214B5B6803F00C0121B10429A8
:1008E00006D0082928D107E0214B224C236027E0BD
:1008F0001F4B204C236023E0184B5B6803F47010FF
:10090000164B5B6803F48032022303EB904022B95C
:10091000194B4343174C23600DE0104B5B6803F405
:10092000003323B1144B4343124C236003E0104BBC
:100930004343104C236003E00D4B0E4C236000BF7B
:1009400000BF064B5B68C3F303130C4CE15C094B1F
:100950001B68CB40074C236010BD00000010024014
:10096000002002400000FFF8FFFFF6FE08ED00E067
:1009700000127A002000002000093D002400002021
:1009800008B50121082003F0D5F840F20340ADF886
:10099000000010208DF8030003208DF80200694646
:1009A000F84802F00BFE40F20341F64802F0B5FEB3
:1009B0004FF48060ADF8000010208DF80300694608
:1009C000F04802F0FBFD4FF48061EE4802F0A5FE16
:1009D0000121042003F0AEF8B020ADF80000102093
:1009E0008DF8030003208DF802006946E64802F006
:1009F000E5FDB021E34802F090FE1020ADF80000C4
:100A00008DF803006946E04802F0D8FD1021DE4869
:100A100002F083FE08BD08B51020ADF800000320E9
:100A20008DF8020028208DF803006946D64802F0B0
:100A3000C5FD08BD08B51020ADF8000014208DF8E4
:100A4000030003208DF802006946CF4802F0B6FD8E
:100A500008BD70B504460121CA4802F05EFE0221BD
:100A6000C84802F05AFE002517E02021C64802F0CF
:100A700054FE04F0800020B18021C34802F04BFEF8
:100A800003E08021C04802F048FE2021BE4802F069
:100A900042FE00BF6400681CC5B2082DE5DB0121E1
:100AA000B84802F038FE0221B64802F034FE70BDAC
:100AB00070B504460121B34802F02DFE0221B14871
:100AC00002F02BFE002517E02021AF4802F025FEA2
:100AD00004F0800020B18021AB4802F01CFE03E04E
:100AE0008021A94802F019FE2021A74802F013FE38
:100AF00000BF6400681CC5B2082DE5DB0121A148D8
:100B000002F009FE02219F4802F005FE70BD00219F
:100B100007E0002200E0521C41F27C539A42FADBCB
:100B2000491C8142F5DB704710B54FF4C870FFF7E0
:100B3000EEFFFFF725FF0221924802F0EEFD4FF491
:100B40008061904802F0E7FDAE20FFF782FF202091
:100B5000FFF77FFF1020FFF77CFFB020FFF779FF42
:100B6000C820FFF776FF0020FFF773FF1020FFF784
:100B700070FF4020FFF76DFF8120FFF76AFFFF2025
:100B8000FFF767FFA120FFF764FFA620FFF761FFD3
:100B9000A820FFF75EFF3F20FFF75BFFA420FFF7D1
:100BA00058FFD320FFF755FF0020FFF752FFD52055
:100BB000FFF74FFFF020FFF74CFFD920FFF749FF69
:100BC0002220FFF746FFDA20FFF743FF1220FFF74E
:100BD00040FFDB20FFF73DFF2020FFF73AFF8D208D
:100BE000FFF737FF1420FFF734FFAF20FFF731FF87
:100BF0000221644802F08FFD10BD70B504460D4619
:100C000005F1B000FFF725FF102141EA1410FFF7AE
:100C100020FF04F00F00FFF71CFF70BD70B502212C
:100C2000584802F07AFD4FF48061564802F073FD97
:100C3000002414E004F1B000FFF70BFF0020FFF7E1
:100C400008FF1020FFF705FF002504E00020FFF754
:100C50002FFF681CC5B2802DF8DB601CC4B2082CC5
:100C6000E8DB0221474802F056FD70BD70B504462E
:100C70000221444802F051FD00250DE0E9B20020B8
:100C8000FFF7BBFF002604E02078FFF711FF641C8C
:100C9000761C802EF8D36D1C082DEFD30221394825
:100CA00002F039FD70BD2DE9F04104460E461546AF
:100CB0000221344802F031FD4FF48061314802F0E6
:100CC0002AFD4FF002080FE0E1B2F0B2FFF795FF06
:100CD000002704E02878FFF7EBFE6D1C7F1C102F27
:100CE000F8D3641CA8F10108B8F1000FECD102217F
:100CF000244802F010FDBDE8F0812DE9F0410446E2
:100D00000E46154602211F4802F007FD4FF002086B
:100D10000FE0E1B23046FFF770FF002704E02878CB
:100D2000FFF7C6FE6D1C7F1C082FF8D3641CA8F1CA
:100D30000108B8F1000FECD10221124802F0EBFCDF
:100D4000BDE8F0812DE9F04706460C46154606F150
:100D5000AF0000F0FF0802210A4802F0DEFC04F0B8
:100D60000F00401E00F0FF09102000EB141A40464F
:100D7000FFF76FFE5046FFF76CFE4846FFF769FE2F
:100D8000002708E0000C0140000801402878FFF728
:100D90008FFE6D1C7F1C062FF8D30221BD4802F088
:100DA000BAFCBDE8F08770B5044600251BE004F0EE
:100DB000800028B18021B84802F0ADFC00BF04E0FB
:100DC0008021B54802F0A9FC00BF6006040E202176
:100DD000B14802F0A2FC00BF2021AF4802F09BFC0A
:100DE00000BF681CC5B2082DE1DB70BD70B50024E2
:100DF0002021A94802F08FFC00BFFFF70CFE002560
:100E00001CE01021A44802F086FC00BF2021A2486B
:100E100002F083FC00BF6006040E10219E4802F021
:100E200060FC18B1601CC4B200BF01E0E4B200BFB6
:100E30002021994802F06FFC681CC5B2082DE0DB48
:100E4000FFF7F8FD204670BD2DE9F04780460D46BE
:100E500016461F46DDF820904FF480618D4802F061
:100E60005CFC02218B4802F056FC20218A4802F0EB
:100E700054FC0320FFF797FF4046FFF794FF2846F6
:100E8000FFF791FF3046FFF78EFF002404E0FFF7E5
:100E9000ADFF3855601CC4B24C45F8DB4FF480619F
:100EA0007C4802F038FCBDE8F0872DE9F0478EB0B1
:100EB00082460E4615460024A6E0285DB02836DBA3
:100EC000285DF72833DC601C285CA1282FDB285D17
:100ED000B0385E21484371490860601C285C00F20C
:100EE000AD20096808446D49086008460068400163
:100EF000086008460068C0F3074708460088C0F34A
:100F00000728084690F80090202006AB4A46414644
:100F100000903846FFF798FF06AA31465046FFF783
:100F2000C2FEA01CC4B206F11000C6B26CE0285D7F
:100F3000A12835DB285DA32832DC601C285CA128B1
:100F40002EDB285DA1385E21484354490860601CAF
:100F5000285CA138096808445049086008460068C0
:100F60004001086008460068C0F30747084600884B
:100F7000C0F30728084690F80090202006AB4A46A8
:100F8000414600903846FFF75FFF06AA31465046BB
:100F9000FFF789FEA01CC4B206F11000C6B233E010
:100FA000285D20282EDB285D7E282BDC285D20385C
:100FB0003A49086008460068000108600846006871
:100FC000374908443549086008460068C0F30747B8
:100FD00008460088C0F30728084690F800901020C3
:100FE00002AB4A46414600903846FFF72DFF02AA61
:100FF00031465046FFF781FE601CC4B206F108007E
:10100000C6B201E0601CC4B2285D00283FF755AFAE
:101010000EB0BDE8F0872DE9FE4F82460E4615461C
:10102000002432E0285D20282DDB285D7E282ADC84
:10103000285D20381949086008460068C00008602B
:1010400008460068174908441449086008460068C3
:10105000C0F3074708460088C0F30728084690F801
:101060000090082001AB4A46414600903846FFF701
:10107000EBFE01AA31465046FFF764FE601CC4B285
:10108000B01DC6B201E0601CC4B2285D0028C9DCF6
:10109000BDE8FE8F000C0140000801403400002034
:1010A00080CF0300C0BF030010B50121082002F06B
:1010B00041FD0121102002F03DFD0121344802F0E4
:1010C0004EFB10BD10B5044614B101203149087023
:1010D0003048007800283DD04FF480512E4802F06F
:1010E00000FB88B14FF400512B4802F0FAFA58B1D6
:1010F0004FF48041284802F0F4FA28B14FF400413F
:10110000254802F0EEFA28BB0A2002F0B6F80020CB
:10111000204908704FF480511F4802F0E2FA08B9E4
:10112000012010BD4FF400511B4802F0DAFA08B953
:101130000220F6E74FF48041174802F0D2FA08B9CE
:101140000320EEE74FF40041134802F0CAFAE0B979
:101150000420E6E74FF480510F4802F0C2FA01285C
:1011600013D141030C4802F0BCFA01280DD18103D0
:10117000094802F0B6FA012807D1C103064802F077
:10118000B0FA012801D1034908700020C9E7000026
:101190000002300038000020000C014008B5032098
:1011A0008DF8000000208DF801008DF8020001206C
:1011B0008DF80300684602F02AFF08BDF0B503462B
:1011C0000C461546642093FBF0F0C6B2642093FBF6
:1011D000F0F700FB1730C1B2132E02DD01F16400FD
:1011E000C1B20846CF1701EB977701EBA707BAB258
:1011F000072092FBF0F700FB172082B25719601E00
:10120000DFF8D4C31CF80000384482B2CF1701EBDA
:101210009777BF10A1EB87071FB9032C01DA501E87
:1012200082B2072092FBF0F700FB1720C0B2F0BD9E
:101230000146CA1701EB92729210A1EB820292B999
:10124000642091FBF0F200FB121050B94FF4C8700B
:1012500091FBF0F200FB121008B90120704700204A
:10126000FCE70120FAE70020F8E770B5002600242B
:10127000002504F08BF80646D848B6FBF0F4D848B1
:101280000088A0423CD0D6490C8040F2B27510E0F4
:101290002846FFF7CDFF40B1B4F5B77F02D3A4F5E0
:1012A000B77404E0681C85B206E0A4F26D14681CF3
:1012B00085B2B4F5B67FEBD800BFCA48858000255B
:1012C00016E0C8498888FFF7B3FF30B1012D04D17B
:1012D0001D2C01D31D3C09E00CE0C348405DA04239
:1012E00003D8C148405D241A00E003E0681C85B2C1
:1012F0001C2CE6D200BF681CBA498871601CC871FA
:10130000B648B6FBF0F100FB11644FF46160B4FB2A
:10131000F0F0B44908704FF46160B4FBF0F100FBE9
:1013200011403C21B0FBF1F0AE4948704FF46160D0
:10133000B4FBF0F100FB11403C21B0FBF1F201FBEA
:101340001200A84988700B46DA7999799888FFF7D6
:1013500035FFA4490872002070BD2DE9F05F0646F4
:101360000F4690469946DDE90AAB002440F2B27080
:10137000864203DB40F63300864202DD0120BDE8F1
:10138000F09F40F2B2750AE02846FFF751FF10B116
:101390009648044401E096480444681C85B2B5426E
:1013A000F2DB781EC7B2002510E08F48405D40F2A6
:1013B000A321484304EBC0143046FFF739FF18B1AE
:1013C000012D01D185480444681C85B2BD42ECDB87
:1013D000A8F1010040F2A321484304EBC014C9EB7B
:1013E0004910C0EB092004EB0014CAEB0A1004EB0F
:1013F00080045C4401214FF0C05002F0A8FB0120A2
:1014000004F053F8204603F0CAFF03F0FBFF00206E
:10141000B5E71CB5002401214FF0C05002F097FB46
:10142000012004F042F8042004F0CFF845F2500106
:10143000884240D004F094F8012002F0E8FA04E079
:10144000601CC4B20A2001F018FF412002F047FAE4
:1014500008B9FA2CF4DBFA2C01DB01201CBD4FF497
:10146000807002F0F0FA012002F0F3FA03F0CAFFF4
:1014700003F0D1FF0121084603F068FF03F0C2FF2B
:1014800003F071FF47F6FF7003F096FF03F0BAFF19
:1014900037202A2111231522CDE90010032140F223
:1014A000E270FFF75AFF03F067FF45F25001042096
:1014B00004F07FF807E003F0AEFF0121084603F0D7
:1014C00045FF03F09FFFFFF769FEFFF7CEFE002008
:1014D000C4E70EB5012003F0C3FF08B1FFF7C5FE56
:1014E000022003F0BDFFA0B1022003F0C9FFFFF707
:1014F000BCFE3C4880783B4949783A4A1278CDE9AD
:10150000002102903748C3798279818839A004F09C
:101510009DF8052003F0B4FF03F074FF0EBD2DE924
:10152000F05F06460F4690469946DDE90AAB002477
:1015300040F2B270864203DB40F63300864202DDA1
:101540000120BDE8F09F40F2B2750AE02846FFF79F
:101550006FFE10B12548044401E025480444681C8E
:1015600085B2B542F2DB781EC7B2002510E01E48F6
:10157000405D40F2A321484304EBC0143046FFF71E
:1015800057FE18B1012D01D114480444681C85B2DE
:10159000BD42ECDBA8F1010040F2A321484304EB7B
:1015A000C014C9EB4910C0EB092004EB0014CAEBCE
:1015B0000A1004EB80045C4401214FF0C05002F09B
:1015C000C6FA012003F071FF204603F003FF03F089
:1015D00019FF0020B5E700004875000880510100A0
:1015E0003A000020B8000020547500080085E20190
:1015F0008033E101416C61726D2054696D653A255B
:10160000642D25642D25642025643A25643A2564DB
:101610000A00000010B540F22551564802F0AEFC19
:10162000F8B1544802F02AFCC4B25348008800F4D0
:101630000040B0B950480088B0F5C87F12DA0021E8
:101640004E4803F039FE4C48008818B901214B4838
:1016500003F09EFB48490888411C474A11804849CD
:101660000C5405E04448008840F40040424908809A
:1016700010BD10B586B004460121042002F05AFACC
:101680000121480402F063FA3A4802F0B7FA042054
:10169000ADF8100003208DF8120018208DF813000B
:1016A00004A9384801F08AFF0820ADF81000042092
:1016B0008DF8130004A9344801F080FF0094002045
:1016C000ADF80400ADF80600ADF80800ADF80C0068
:1016D0000C20ADF80A006946264802F0D2FA012132
:1016E000244802F05AFB012240F22551214802F021
:1016F00060FB26208DF8140002208DF815000320D1
:101700008DF8160001208DF8170005A802F07FFC67
:1017100041F61F41632001F08BFE0020164908802E
:101720000021164803F034FB06B010BD0FB438B5E5
:1017300005A800901548009A049903F075FF002051
:101740000090124804F0A0F885B200240DE000BF1C
:101750004021084802F0FCFB0028F9D00B48015D4D
:10176000044802F087FB601C84B2AC42EFDB38BC5B
:101770005DF814FB004400403C00002000040040E1
:10178000C200002000080140000C0140520200206D
:1017900008B50121082002F0CDF94FF44070ADF8F2
:1017A000000010208DF8030003208DF80200694628
:1017B000044801F003FF4FF44071024801F0ABFF11
:1017C00008BD0000000C014010B5FE48808842F2C0
:1017D000107190FBF1F201FB12004FF47A7190FB53
:1017E000F1F03030F8490870F64880884FF47A718B
:1017F00090FBF1F201FB1200642190FBF1F030301C
:10180000F1494870EF488088642190FBF1F201FBB8
:1018100012000A2190FBF1F03030EB498870E94862
:1018200080880A2190FBF1F201FB12003030E6497A
:10183000C8703A200871E3488079642190FBF1F286
:1018400001FB12000A2190FBF1F03030DE494871B3
:10185000DC4880790A2190FBF1F201FB1200303064
:10186000D94988713A20C871D648C079642190FB63
:10187000F1F201FB12000A2190FBF1F03030D24965
:101880000872D048C0790A2190FBF1F201FB1200E6
:101890003030CD494872002088720A46002108463F
:1018A000FFF703FBC7480078642190FBF1F201FBCE
:1018B00012000A2190FBF1F03030C3490870C14892
:1018C00000780A2190FBF1F201FB12003030BE4992
:1018D00048703A208870BB484078642190FBF1F250
:1018E00001FB12000A2190FBF1F03030B649C870BC
:1018F000B44840780A2190FBF1F201FB120030302D
:10190000B14908713A204871AE488078642190FB53
:10191000F1F201FB12000A2190FBF1F03030AA49EC
:101920008871A84880780A2190FBF1F201FB12002F
:101930003030A549C871002008720A4600210220F3
:10194000FFF7B3FA10BD10B5A048808842F21071BD
:1019500090FBF1F201FB12004FF47A7190FBF1F071
:10196000303099490870994880884FF47A7190FB1B
:10197000F1F201FB1200642190FBF1F0303092494A
:10198000487092488088642190FBF1F201FB1200BC
:101990000A2190FBF1F030308B4988708B488088A9
:1019A0000A2190FBF1F201FB120030308649C87029
:1019B0003A20087185488079642190FBF1F201FB9F
:1019C00012000A2190FBF1F030307F4948717F48C6
:1019D00080790A2190FBF1F201FB120030307A4944
:1019E00088713A20C8717948C079642190FBF1F27E
:1019F00001FB12000A2190FBF1F0303072490872AD
:101A00007248C0790A2190FBF1F201FB12003030DC
:101A10006D494872002088720A4600210846FFF787
:101A200044FA6A480078642190FBF1F201FB12004D
:101A30000A2190FBF1F03030634908706348007868
:101A40000A2190FBF1F201FB120030305E49487030
:101A50003A2088705D484078642190FBF1F201FBE8
:101A600012000A2190FBF1F030305749C8705748F6
:101A700040780A2190FBF1F201FB1200303052490C
:101A800008713A20487151488078642190FBF1F246
:101A900001FB12000A2190FBF1F030304A498871B5
:101AA0004A4880780A2190FBF1F201FB12003030A5
:101AB0004549C871002008720A4600210220FFF73C
:101AC000F4F910BD10B5424800780C284FD2DFE879
:101AD00000F0060C12181E242A30363C42483DA263
:101AE0006E210020FFF7E1F942E03BA26E210020C9
:101AF000FFF7DBF93CE039A26E210020FFF7D5F9B2
:101B000036E037A26E210020FFF7CFF930E035A292
:101B10006E210020FFF7C9F92AE033A26E210020D0
:101B2000FFF7C3F924E031A26E210020FFF7BDF9D1
:101B30001EE02FA26E210020FFF7B7F918E02DA2BA
:101B40006E210020FFF7B1F912E02BA26E210020D8
:101B5000FFF7ABF90CE029A26E210020FFF7A5F9F1
:101B600006E027A26E210020FFF79FF900E000BFEA
:101B700000BF10BD10B516480078401C144908700D
:101B800008460078062801DB00200870FFF79AFF5E
:101B900010BD0F4800780C2873D2DFE800F0AF06C4
:101BA00036424E5A66737F8B97A308488088401C44
:101BB000064988800846808840F63401884223DD43
:101BC00008461FE0B8000020E40300202A0400209B
:101BD0004100002030300000303100003032000081
:101BE0003033000030340000303500003036000063
:101BF000303700003038000030390000313000004C
:101C000031310000FE49888079E0FD488079401C30
:101C1000FB498871084680790C2801DD0020887115
:101C20006DE0F748C079401CF549C8710846C07995
:101C30001F2801DD0020C87161E0F1480078401CD8
:101C4000EF49087008460078182801DD0020087068
:101C500055E0EB484078401CE94948700846407818
:101C60003C2801DD0020487049E0E6480078401C2F
:101C7000E449087008460078182801DD0020087043
:101C80003DE03BE0DF484078401CDE4948700846B4
:101C900040783C2801DD0020487030E0DA480078C8
:101CA000401CD949087008460078182801DD00203A
:101CB000087024E0D4484078401CD3494870084656
:101CC00040783C2801DD0020487018E0CF480078BB
:101CD000401CCE49087008460078182801DD002015
:101CE00008700CE0C9484078401CC8494870084654
:101CF00040783C2801DD0020487000E000BF00BFB4
:101D00007047C34800780C2879D2DFE800F08406D9
:101D100015202B36414C57626D79B9488088401E9A
:101D2000B74988800846808840F26C71884202DAA0
:101D30000846B34988806FE0B1488079401EB049B9
:101D400088710846807908B90C20887164E0AC4835
:101D5000C079401EAA49C8710846C07908B91F2039
:101D6000C87159E0A6480078401EA5490870084689
:101D7000007808B9182008704EE0A1484078401E4D
:101D80009F4948700846407808B93C20487043E0B5
:101D90009C480078401E9B4908700846007808B9A6
:101DA0001820087038E097484078401E95494870E0
:101DB0000846407808B93C2048702DE092480078E9
:101DC000401E914908700846007808B9182008702C
:101DD00022E08D484078401E8B4948700846407884
:101DE00008B93C20487017E088480078401E8749B1
:101DF00008700846007808B9182008700CE00AE05E
:101E000082484078401E814948700846407808B9A9
:101E10003C20487000E000BF00BF704710B5FFF7DE
:101E2000B8FEFFF74FFE7A4800780B2801DCFFF779
:101E30008AFDFFF747FE10BD10B5FFF762FFFFF701
:101E400041FE734800780B2801DCFFF77CFDFFF7AB
:101E500039FE10BD1CB56F480078012827D1FFF767
:101E600089FE6B48007801280FD16B48808864494F
:101E700088806948807988716748C079C8716648E8
:101E800000780870644840784870614800780028FD
:101E900037D15B4880785A494978594CCDE90010D0
:101EA0002378E279A179A088FFF757FA29E0594809
:101EB0000078022805D15648007800B3FFF7AEFF3E
:101EC0001FE054480078032805D151480078B0B18C
:101ED000FFF7B2FF15E04F480078042810D14F48B3
:101EE000007830B901204D49087000204C49086045
:101EF00007E000204949087001204949086000E0D6
:101F000000BF1CBD10B5444800783E49097888429E
:101F100011D1414840783B49497888420BD140F281
:101F2000DC5001F0AAF940F2DC5001F0A6F940F2D1
:101F3000DC5001F0A2F9384800783349097888422A
:101F400011D1354840783049497888420BD140F268
:101F5000DC5001F092F940F2DC5001F08EF940F2D1
:101F6000DC5001F08AF92C48007828490978884229
:101F700011D1294840782549497888420BD140F24F
:101F8000DC5001F07AF940F2DC5001F076F940F2D1
:101F9000DC5001F072F910BD10B50A21002001F0EB
:101FA00014F9204908800846008842F2107190FB1D
:101FB000F1F201FB12004FF47A7190FBF1F0303036
:101FC00019490870174800884FF47A7190FBF1F2B4
:101FD00001FB1200642190FBF1F03030124948708F
:101FE00010480088642190FBF1F201FB12000A21E5
:101FF00090FBF1F030300C4988700A48008815E0F9
:102000002A040020340400203E040020480400205C
:102010004100002042000020B800002054000020B1
:102020008881214244000020E40300200A2190FB23
:10203000F1F201FB12003030E649C870252008712A
:1020400000204871E4480088B0F5FA6F03DD0020F5
:10205000E249086002E00120E049086010BD70B567
:1020600004460D46DEA200210846FEF71EFF072C9F
:1020700035D2DFE804F034040C141C242C00DBA25D
:1020800000210220FEF711FFD948055528E0D9A20A
:1020900000210220FEF709FFD548055520E0D6A211
:1020A00000210220FEF701FFD148055518E0D3A218
:1020B00000210220FEF7F9FECD48055510E0D1A21F
:1020C00000210220FEF7F1FEC948055508E0CFA225
:1020D00000210220FEF7E9FEC548055500E000BFDB
:1020E00000BF70BD00200021CA4A117011E0C04934
:1020F000891DC84A1278895CBD4AC64B1B78D25CE0
:10210000914201D1411CC8B2C2490978491CC14A57
:102110001170C04909780629E9DB70470020BE49E3
:102120000978A1B90021BB4A11700CE0B049B94A45
:1021300012788A5C0C31B74B1B78CA54B5490978C0
:10214000491CB44A1170B34909780629EEDBB2493B
:102150000978012937D10021AE4A117011E0A44954
:102160000C31AC4A1278895CA14AAA4B1B78D25C2C
:10217000914201D1411CC8B2A6490978491CA54A1F
:102180001170A44909780629E9DB062818D1012134
:10219000974A517600219F4A11700CE094499D4A5C
:1021A00012788A5C891D9B4B1B78CA54994909781F
:1021B000491C984A1170974909780629EEDB02E01C
:1021C00000218B4A517694490978491C924A117032
:1021D000704710B50446002C13DD092C11DCFEF706
:1021E0001DFD8E480078401C8C4908700846007818
:1021F000062801DB06200870214688480078FFF792
:102200002EFF0A2C0FD1FEF709FD84480078012823
:1022100004DB82480078401E8049087021467F48D0
:102220000078FFF71CFF0B2C43D17C480078062870
:102230003FD16BA200210846FEF737FEFF24FFF7CF
:1022400051FF7749087008460078052827D1FEF726
:10225000E5FC012073490870087073A20021022078
:10226000FEF723FE74A001F09BF80D2001F08DF81D
:102270000A2001F08AF84FF4967000F0FEFF6AA081
:1022800001F08EF80D2001F080F80A2001F07DF8B1
:10229000FF205749087001200876887606E0FEF78F
:1022A000BDFC69A200210220FEF7FFFD00205B4972
:1022B00008700B2C10D15948007806280CD0FEF776
:1022C000ADFC00204A49887645A200210846FEF769
:1022D000ECFD0020514908700C2C32D14448007E9E
:1022E00001282ED1FEF79AFC4B48007820B958A25D
:1022F00000210846FEF7D9FD4848007806280AD193
:10230000FFF70CFF44480078012804D154A20021B3
:102310000846FEF7CAFD0020404908703448407E58
:10232000012807D100203249487651A200210846F1
:10233000FEF7BBFD38480078022802D1002036495C
:10234000087010BD234840782249097801EB8101CB
:1023500000EB41004A4908701E48C0781D49897841
:1023600001EB810100EB4100454948701948407973
:102370001849097901EB810100EB410041490870DE
:102380001448C0791349897901EB810100EB4100C0
:102390003C4948700F48407A0E49097A01EB8101A7
:1023A00000EB4100384908700A48C07A0949897A27
:1023B00001EB810100EB41003349487008200C49D2
:1023C000887108210A48C171017241728172C1721B
:1023D00070470000E403002044000020A081214257
:1023E000C7EBCAE4C8EBC3DCC2EB00002A00000064
:1023F000540400202A2A00002A2A2A002A2A2A2AEB
:10240000000000002A2A2A2A2A0000002A2A2A2A52
:102410002A2A0000670000206600002064000020D7
:10242000650000200000002048656C6C6F20576537
:102430006C6C636F6D65000041542B4349505345EC
:102440004E443D302C313600536F727279000000DB
:10245000C7EBCAE4C8EBD0C2C3DCC2EB000000008B
:10246000C7EBD4D9B4CECAE4C3DCC2EB0000000091
:10247000C3DCC2EBD0DEB8C4D5FDC8B70000000095
:10248000340400203E04002048040020002103E022
:1024900000BF00BF00BF491C8142F9D3704701460D
:1024A00000BFF748008800F002000028F9D0F44887
:1024B000001D018000BFF248008800F001000028E4
:1024C000F9D0EF48001D0088C0B27047ED48806920
:1024D00040F00100EB4988610846806940F008003F
:1024E00088610846806940F004008861E648006819
:1024F00020F07F40E44908600846006840F04C50F6
:102500000860081D0068C0F31300091D0860084634
:102510000068DE490843DC49091D0860D948C069E4
:1025200040F48040D749C861D54808380088D4496C
:10253000083908800846008840F400700880084682
:10254000008840F4807008800846008840F004004D
:1025500008800846008808800846008820F00200AD
:1025600008800846008820F001000880084600889E
:1025700040F0380008800846008808800846008837
:1025800040F040000880704710B502460B464020DE
:10259000BD49143108607E2000EA42042046FFF75E
:1025A0007EFF1846FFF77BFF4020B74910310860D7
:1025B00010BD10B5024600244020B3491431086014
:1025C0007E2000EA420040F080031846FFF767FFD4
:1025D0000020FFF764FF04464020AB49103108603B
:1025E000204610BD70B505460C4600262846FFF76C
:1025F000E0FF064646EA04012846FFF7C5FF70BD26
:1026000010B51420FFF7D5FF044604F0030018B9F5
:1026100003211420FFF7E6FF10BD70B505460C46F8
:1026200000262846FFF7C5FF064626EA040128468D
:10263000FFF7AAFF70BD10B50446412C26D1082132
:102640000846FFF7EAFF3D211120FFF79DFF862195
:102650001720FFF799FF7F212620FFF795FF1E2106
:102660002D20FFF791FF00212C20FFF78DFF8D21FA
:102670002A20FFF789FF3E212B20FFF785FF4FF42B
:102680007A70FFF703FFFFF7BBFF01E0012010BDE9
:102690000020FCE700B503211420FFF7BEFF00BDBA
:1026A00000B580207849103108600A20FFF7EEFE5F
:1026B00080207549143108600A20FFF7E7FE80206A
:1026C0007149103108600A20FFF7E0FE0F21012058
:1026D000FFF75AFF0F210120FFF756FF0A20FFF7EF
:1026E000D5FE3D211120FFF74FFF1E212D20FFF7C2
:1026F0004BFF00212C20FFF747FF8D212A20FFF7F9
:1027000043FF3E212B20FFF73FFF40211520FFF71D
:102710003BFF002000BD00B5FFF7D8FEFFF7C0FF6C
:10272000FFF7B8FFFFF76CFF4120FFF784FF00BD04
:1027300000B5FFF7B5FFFFF7ADFFFFF761FF00BD85
:102740002DE9FE4F0646884691469A46DDF830B0A0
:10275000022002900020019000900C2E06D00E2E38
:1027600009D1122001901020009005E077200190FF
:102770003020009000E000BF00BF019840F08001D1
:102780000220FFF701FF80210420FFF746FF002110
:102790000120FFF7F9FE80210A20FFF723FF002523
:1027A00006E018F805100920FFF7EEFE681C85B258
:1027B0004D45F6DB31460120FFF7E6FE0C2E03D136
:1027C00080210D20FFF70EFF4FF4167500BF042087
:1027D000FFF7EFFE0446681E85B235B104F0010034
:1027E00018B9009820400028F1D080210D20FFF773
:1027F00014FF002D38D00620FFF7DBFE00F01B0091
:1028000078BB002002900198204000F0010008B140
:10281000012002900C2E27D10A20FFF7CAFE0446A1
:102820000C20FFF7C6FE00F007072FB1601E07EB74
:10283000C0008BF8000003E0E006000E8BF80000FB
:1028400004B90124122C00DD1224002506E0092021
:10285000FFF7AFFE0AF80500681C85B2A542F6DB5B
:1028600002E0FFE70220029080210C20FFF7BAFE71
:1028700000210120FFF788FE0298BDE8FE8F0000CE
:102880000838004000100240000C01400000B0B8C1
:1028900070B587B005460C4608210846FFF7BDFE17
:1028A00007210D20FFF770FE03211420FFF79AFE89
:1028B0008DF8045006A801AB012201A900900C205C
:1028C000FFF73EFF064656B99DF81800102806D1BE
:1028D0009DF8040020709DF80500607000E002265D
:1028E000304607B070BDF0B587B005460027082117
:1028F0000846FFF792FE00210D20FFF745FE8021DC
:102900000E20FFF78AFE93208DF8040020208DF81A
:10291000050006A801AB022201A900900C20FFF7D8
:102920000FFF064686B9002407E001A8005D285580
:1029300001A8005D4740601CC4B2042CF5DB01A86F
:10294000005DB84200D0022680210E20FFF74AFE2B
:10295000304607B0F0BD2DE9F041074688461546E0
:1029600004210520FFF759FE00210120FFF70CFE8E
:1029700080210A20FFF736FE002405E0395D09209A
:10298000FFF702FE601CC4B24445F7DB03210120BF
:10299000FFF7FAFDFF2400BF0520FFF70AFE0646F9
:1029A000601EC4B21CB106F004000028F4D022203E
:1029B000FFF7FFFD28702120FFF7FBFD6870BDE8E1
:1029C000F08170B587B0054693208DF80400702023
:1029D0008DF8050000208DF80A0000240BE0295D29
:1029E00001AAA01C11549DF80A00295D48408DF8E9
:1029F0000A00601CC4B2042CF1DB0DF10B020721AC
:102A000001A8FFF7A8FF08210846FFF706FE06A861
:102A100001AB092201A900900C20FFF791FE0646A8
:102A20002EB99DF81800182801D1002600E00226D2
:102A3000304607B070BD2DE9F04187B004460D4621
:102A400016461F468DF804408DF805503068CDF8C5
:102A50000600B088ADF80A003868039006A801ABFC
:102A60000C2201A900900E20FFF76AFE8046B8F103
:102A7000000F05D10820FFF79CFD00F0080008B901
:102A80004FF00208404607B0BDE8F081F0B587B0CE
:102A900005460E4630208DF804008DF805500DF1E6
:102AA0000602022101A8FFF756FF06A801AB042287
:102AB00001A900900C20FFF743FE07466FB99DF86F
:102AC0001800902809D1002404E001A8005D3055C9
:102AD000601CC4B2102CF8DB00E00227384607B0B7
:102AE000F0BDF0B587B006460F46A0208DF8040073
:102AF0008DF805600DF10602022101A8FFF72BFFFA
:102B000006A801AB042201A900900C20FFF718FED3
:102B100005464DB99DF81800042805D19DF804001C
:102B200000F00F000A2800D0022515BB002404E0A5
:102B3000385D01A90855601CC4B2102CF8DB05AA49
:102B4000102101A8FFF707FF06A801AB122201A977
:102B500000900C20FFF7F4FD05464DB99DF81800D4
:102B6000042805D19DF8040000F00F000A2800D0C9
:102B70000225284607B0F0BD00B587B050208DF87B
:102B8000040000208DF805000DF10602022101A8C5
:102B9000FFF7E1FE06A801AB042201A900900C207A
:102BA000FFF7CEFD002007B000BDF0B587B00646A8
:102BB0000D4617468DF804608DF805500DF106029C
:102BC000022101A8FFF7C7FE06A801AB042201A954
:102BD00000900C20FFF7B4FD04464CB99DF8180096
:102BE000042805D19DF8040000F00F000A2800D049
:102BF0000224A4B93868019002AA042101A8FFF7B1
:102C0000AAFE0020069006A801AB062201A90090AA
:102C10000C20FFF795FD0446022C00D00024FCB9DF
:102C2000B0208DF804008DF805500DF10602022148
:102C300001A8FFF790FE06A801AB042201A90090AD
:102C40000C20FFF77DFD04464CB99DF818000428C0
:102C500005D19DF8040000F00F000A2800D00224DE
:102C6000204607B0F0BD70B587B005460E46C220BD
:102C70008DF804008DF805500DF10602022101A81F
:102C8000FFF769FE06A801AB042201A900900C2001
:102C9000FFF756FD04464CB99DF81800042805D1ED
:102CA0009DF8040000F00F000A2800D00224CCB9DF
:102CB00000208DF804008DF805008DF806008DF8D1
:102CC000070002AA042101A8FFF745FE06A801ABF0
:102CD000062201A900900C20FFF732FD0446022CC9
:102CE00000D0002414B1022007B070BDB0208DF8D0
:102CF00004008DF805600DF10602022101A8FFF71E
:102D00002AFE06A801AB042201A900900C20FFF7BF
:102D100017FD04464CB99DF81800042805D19DF80C
:102D2000040000F00F000A2800D002242046DBE750
:102D30000020EC490870EC490880EC490870EC4927
:102D40000870704700B50246FFF7F2FFA02A06D0D0
:102D5000A12A08D0A22A0DD0A32A19D111E0A520BA
:102D6000E249087015E0A120E04908700420DE491E
:102D700008800EE0A220DD4908700420DA490880AE
:102D800007E0A320D94908700720D749088000E050
:102D900000BF00BF00BD70B5FFF782FCD5492620FB
:102DA000FFF776FD044604B170BDD248801CFFF7E2
:102DB0009AFD044604B1F7E7CF48CE49D1F8021096
:102DC0000160FFF7FEFD044604B1EDE7C748007857
:102DD000A3281DD10020C5490870C3480178C64BFF
:102DE000C64A6020FFF727FE044604B1DCE7BE496F
:102DF0000878C349FFF775FE044604B1D4E7FFF72E
:102E0000BBFE0020BF4908600120B64908705CE0A5
:102E1000B6480078A1281DD10020B4490870B248F6
:102E20000178B54BB54A6020FFF705FE044604B1B2
:102E3000BAE7AD490878B449FFF728FE044604B163
:102E4000B2E7FFF799FE0020AE4908600120A549CE
:102E500008703AE0A5480078A2281DD10020A349B7
:102E60000870A1480178A44BA44A6020FFF7E3FD55
:102E7000044604B198E79C490878A449FFF731FE5D
:102E8000044604B190E7FFF777FE00209D490860F3
:102E900001209449087018E094480078A52814D1BE
:102EA000002092490870002505E09348405D98494C
:102EB0004855681CC5B2042DF7DBFFF75DFE002006
:102EC0009049086001208749087000BF6CE710B581
:102ED000FFF761FF10BD01460A2309B901207047C1
:102EE000012203E003EB83004300521C8A42F9DB1A
:102EF0001846F4E710B5A020FFF724FFFFF7E7FF1F
:102F000010BD2DE9F0474FF0000A00210C460D4698
:102F1000A120FFF717FFFFF7DAFF4FF0010A1AE0D1
:102F2000794810F80A0090B1AAF10100FFF7D3FF29
:102F3000754911F80A1000FB01F8404604F0E3F867
:102F4000064622462B4603F0B1FE04460D460AF122
:102F5000010000F0FF0ABAF1100FE1DB6A490878BE
:102F600004F0E8F8064600226A4B03F047FF80466B
:102F700022462B4603F09AFE04460D46204629467B
:102F8000BDE8F0872DE9F84F05460E460024A1461E
:102F9000A220FFF7D7FE00BF04E000205B490855E0
:102FA000601CC4B2102CF8DB0F2425E0601EFFF774
:102FB00092FF009004F0A7F807463A460B462846D1
:102FC000314603F01BFF824604F070F800F0FF0961
:102FD0004E4800F80490601EFFF77DFF00FB09FAE1
:102FE000504604F090F807462A46334604F0B4F9F8
:102FF00005460E46601EC4B2002CD7DC0022454BAD
:103000002846314604F0AAF8074604F04FF800F0CD
:10301000FF093E4880F80090FFF759FFBDE8F88FA0
:103020002DE9FE4105460E46099C002047E0115C53
:10303000CF1701EB17773F110DF810701DF8101026
:10304000092906DD1DF810103731C9B20DF810102E
:1030500005E01DF810103031C9B20DF81010115CE8
:10306000CF1701EB17773F11A1EB0717FFB24FF016
:10307000010C0CEB400C0DF80C70012101EB400130
:103080001DF8011009290CDD012101EB40011DF89B
:1030900001103731C9B2012707EB40070DF80710BF
:1030A0000BE0012101EB40011DF801103031C9B2E4
:1030B000012707EB40070DF80710411CC8B2042890
:1030C000B5DB00218DF80810002001E0411CC8B2DA
:1030D0000928FBDBBDE8FE8130B5DDE9034530BDE5
:1030E0007047000082000020700000207200002065
:1030F00073000020980400207A0000207400002053
:10310000B6040020A0012142780400208804002099
:103110007E0000200000244000B587B001214FF45C
:10312000017000F007FD4FF4004000F067FC012043
:10313000ADF8040000208DF8070001A92E4800F02A
:103140003DFA2E4800F0CCFF002002908DF80C00D4
:103150008DF80D004FF460200490002005900120B0
:103160008DF8180002A9254800F0E1FF012123484D
:1031700001F009F8214801F028F800BF1F4801F0CC
:1031800029F80028FAD11D4801F02EF800BF1B488D
:1031900001F02FF80028FAD107B000BD10B50446A1
:1031A000072301222146154801F059F8012113484F
:1031B00001F029F800BF0221104801F095F900281C
:1031C000F9D00E4801F0B2F810BD2DE9F0410746E4
:1031D0000C460025002608E03846FFF7DFFF0544CF
:1031E000052000F04AF8701CC6B2A642F4DBB5FB1D
:1031F000F4F080B2BDE8F0810008014000240140F5
:1032000010B56FF0040000F04CFF2E4800682E4906
:10321000B0FBF1F02D4908700846007800EB400142
:10322000C1EBC0104FF6FF7101EAC00028490880C9
:1032300010BD0146254A12784A434FF0E0235A61F7
:1032400000229A611A46126942F001021A6100BF17
:103250004FF0E022106900F001021AB100F4803250
:10326000002AF5D04FF0E022126922F001024FF05F
:10327000E0231A6100229A6170470146144A1288BD
:103280004A434FF0E0235A6100229A611A461269BC
:1032900042F001021A6100BF4FF0E022106900F015
:1032A00001021AB100F48032002AF5D04FF0E0227A
:1032B000126922F001024FF0E0231A6100229A61A4
:1032C000704700002000002000127A0098000020C3
:1032D0009A000020014600BF704700BF504A128884
:1032E00002F04002002AF9D0C2B24D4B1B1D1A80D9
:1032F000704710B586B00446012144F2040000F086
:1033000019FC4FF40070ADF8140003208DF816007E
:1033100018208DF8170005A9424800F04FF94FF426
:103320008060ADF8140004208DF8170005A93D4811
:1033300000F044F925208DF8000003208DF80100ED
:103340008DF8020001208DF80300684600F05FFE52
:1033500001940020ADF80800ADF80A00ADF80C00AB
:10336000ADF810000C20ADF80E0001A92C4800F0BB
:1033700088FC012240F22551294800F01AFD012164
:10338000274800F00AFD06B010BD2549091D088038
:1033900000BF2349098801F040010029F9D0704796
:1033A0000BE010F8011B1E4A121D118000BF1C49C2
:1033B000098801F040010029F9D001780029F0D1F5
:1033C0007047002004E00021174A1154411CC8B284
:1033D000164909888842F6DB0021144A118070479B
:1033E00010B504462146104802F03CFA08B101200D
:1033F00010BD0020FCE710B540F22551084800F050
:10340000BDFD58B1064800F039FDC4B20748018837
:103410000088401C054A10800348445410BD000039
:103420000038014000080140C6040020A000002030
:103430007FB505460C460121022000F088FBADF85F
:103440000850ADF804400020ADF80A00ADF80600C1
:1034500001A9184801F040F901221146154801F070
:10346000B2FC1D208DF8000000208DF80100022024
:103470008DF8020001208DF80300684600F0C7FDBA
:1034800001210C4801F084FC7FBD10B501210948E1
:1034900001F047FF68B10848008840F40040064941
:1034A00008800121034801F04DFF0021014801F08F
:1034B0006FFC10BD000400403C000020094880471C
:1034C00009480047FEE7FEE7FEE7FEE7FEE7FEE706
:1034D000FEE7FEE7FEE7FEE704480549054A064B1E
:1034E000704700007F08000831010008F005002047
:1034F000F00B0020F0070020F007002010B5044674
:10350000CC48844208D10121042000F02DFB002189
:10351000042000F029FB46E0C748844208D101217D
:10352000082000F021FB0021082000F01DFB3AE0FC
:10353000C248844208D10121102000F015FB00216F
:10354000102000F011FB2EE0BD48844208D101217B
:10355000202000F009FB0021202000F005FB22E0E4
:10356000B848844208D10121402000F0FDFA002132
:10357000402000F0F9FA16E0B348844208D1012156
:10358000802000F0F1FA0021802000F0EDFA0AE03E
:10359000AE48844207D10121801500F0E5FA0021F0
:1035A000A01500F0E1FA10BD10B50121084600F0A9
:1035B000DBFA0021012000F0D7FA10BD2DE9F0411F
:1035C000024600250026002000230024002791F851
:1035D00003C00CF00F0591F803C00CF0100CBCF107
:1035E000000F03D091F802C04CEA050591F800C025
:1035F000BCF1000F31D0146800202BE04FF0010C1B
:103600000CFA00F3B1F800C00CEA03069E4220D188
:1036100083004FF00F0C0CFA03F7BC4305FA03FCD0
:103620004CEA040491F803C0BCF1280F06D14FF016
:10363000010C0CFA00FCC2F814C00AE091F803C0B7
:10364000BCF1480F05D14FF0010C0CFA00FCC2F898
:1036500010C0401C0828D1D31460B1F800C0BCF1E0
:10366000FF0F34DD546800202EE000F1080C4FF00D
:10367000010808FA0CF3B1F800C00CEA03069E42F8
:1036800021D183004FF00F0C0CFA03F7BC4305FA6D
:1036900003FC4CEA040491F803C0BCF1280F05D1E7
:1036A00000F1080C08FA0CF8C2F8148091F803C075
:1036B000BCF1480F07D100F1080C4FF0010808FADF
:1036C0000CF8C2F81080401C0828CED35460BDE826
:1036D000F0814FF6FF710180022181700421C170D9
:1036E00070470246002093680B400BB1012000E0B8
:1036F000002070470146886880B27047024600206B
:10370000D3680B400BB1012000E000207047014658
:10371000C86880B2704701617047416170470AB163
:10372000016100E041617047C16070474FF4803231
:103730000A438261816182618269826970470246BF
:103740000020434B18684FF68073184040EA02107F
:1037500008433F4B186070473E49C8617047F0B559
:103760000A46002300240021002500F00046B6F19F
:10377000004F02D1364EF16901E0354E7168C0F359
:10378000034583B200F44016B6F5401F08D121F07E
:1037900070612F4E766826F070662D4F7E6012E0C5
:1037A00000F48016B6F5801F06D1032606FA05F44C
:1037B000A14341F0706106E0460D360103FA06F6BA
:1037C000B14341F0706122B1460D360103FA06F6AD
:1037D000314300F00046B6F1004F02D11C4EF161BA
:1037E00001E01B4E7160F0BD30B500228B071C0F4D
:1037F0000F2303FA04F2164B08338C1053F82430CD
:103800009343134C08348D1044F8253023468C1014
:1038100053F824308C07240F00FA04F423430C4C93
:1038200008348D1044F8253030BD0A49DC31086079
:103830007047000000080140000C014000100140EA
:103840000014014000180140001C0140002001400C
:103850000000014000002042DF48006840F0010005
:10386000DD49086008464068DC490840DA4948609C
:1038700008460068DA490840D749086008460068E9
:1038800020F4802008600846406820F4FE0048606C
:103890004FF41F0088607047CF49096821F48031D8
:1038A000CD4A11601146096821F480211160B0F5FC
:1038B000803F03D0B0F5802F0ED106E0C6490968DD
:1038C00041F48031C44A116007E0C349096841F4FA
:1038D000A021C14A116000E000BF00BF704710B5D1
:1038E00001460022002300204A11012A02D1BA4CCD
:1038F000236806E0022A02D1B74C236A01E0B64CE5
:10390000636A01F01F02012494401C400CB10120A5
:1039100000E0002010BD38B50020009000240025F4
:1039200000BF3120FFF7DBFF05460098401C0090E8
:103930000098B0F5A06F01D0002DF2D03120FFF734
:10394000CEFF08B1012400E00024204638BD014626
:103950000020A14A106820F0F80040EAC100106081
:103960007047A04908607047024600209A4B58688B
:1039700020F47C1042EA01031843974B58607047CB
:1039800098490866704701460020934A506820F025
:1039900003000843506070478F48406800F00C00F7
:1039A0007047014600208C4A506820F0F000084320
:1039B0005060704701460020874A506820F4E0605C
:1039C00008435060704701460020834A506820F445
:1039D000605040EAC1005060704729B17E4A527A77
:1039E00002437D4B5A7204E07B4A527A82437A4BFF
:1039F0005A7270477B49D8310860704701460020F1
:103A0000754A506820F440400843506070470021D8
:103A1000714A20321170704A82F82010012802D0B9
:103A200004280AD104E001216B4A2032117005E01C
:103A30000521694A2032117000E000BF00BF7047C5
:103A40006949086070476449096A0143624A116222
:103A50007047654944390860704730B5002100223D
:103A6000002400235C4D6D6805F00C0121B1042990
:103A700005D0082923D105E05C4D056022E05B4DAF
:103A800005601FE0544D6D6805F47012524D6D686D
:103A900005F48034022505EB92421CB9544D554380
:103AA00005600BE04C4D6D6805F400351DB1504DBF
:103AB0005543056002E04D4D5543056002E04B4D16
:103AC000056000BF00BF444D6D6805F0F0010909B5
:103AD000484D6B5C0568DD4045603F4D6D6805F401
:103AE000E061090A434D6B5C4568DD4085603A4DF5
:103AF0006D6805F46051C90A3E4D6B5C4568DD4058
:103B0000C560354D6D6805F44041890B3A4D6B5CDD
:103B1000C568B5FBF3F5056130BD29B12E4A526980
:103B200002432D4B5A6104E02B4A526982432A4BCF
:103B30005A61704729B1284A92690243264B9A611B
:103B400004E0254A92698243234B9A61704729B168
:103B5000214AD2690243204BDA6104E01E4AD2694D
:103B600082431D4BDA61704729B11B4AD268024378
:103B7000194BDA6004E0184AD2688243164BDA60C7
:103B8000704729B1144A12690243134B1A6104E0C9
:103B9000114A12698243104B1A6170471249403929
:103BA000086070470F49C86470470B49C871704777
:103BB0000948406A40F080700749486270470146F2
:103BC0000020054A92680A400AB1012000E0002066
:103BD0007047014988727047001002400000FFF8EA
:103BE000FFFFF6FE000042428004424200127A00CB
:103BF00000093D00A2000020B200002010B50446DC
:103C0000FB48844209D101218803FFF7ADFF002161
:103C10004FF48040FFF7A8FF32E0F648844209D114
:103C200001214804FFF7ADFF00214FF40030FFF7FA
:103C3000A8FF25E0F048844209D101218804FFF75C
:103C4000A0FF00214FF48020FFF79BFF18E0EB4816
:103C5000844209D10121C804FFF793FF00214FF4EA
:103C60000020FFF78EFF0BE0E548844208D10121D8
:103C70000805FFF786FF00214FF48010FFF781FF52
:103C800010BD2DE9F04786B005460E460024A24639
:103C900000BFA1460027B08900B100BF2F462C8A83
:103CA0004CF6FF700440F08804432C82AC894EF639
:103CB000F3100440B08831890843718908430443F4
:103CC000AC81AC8A4FF6FF400440B0890443AC821B
:103CD00001A8FFF7C2FEC648874202D1DDF810A056
:103CE00001E0DDF80CA0A88900F4004040B10AEB27
:103CF000CA0000EB0A1031684900B0FBF1F807E098
:103D00000AEBCA0000EB0A1031688900B0FBF1F839
:103D10006420B8FBF0F004012009642101FB108944
:103D2000A88900F4004040B1322000EBC900B0FB8C
:103D3000F1F000F00700044308E0322000EB091026
:103D40006421B0FBF1F000F00F0004432C8106B0B9
:103D5000BDE8F0874FF41651016000218180C180D9
:103D600001810C21418100218181704710B50246FB
:103D70000020108A4FF2FF0318400B884C88234321
:103D80008C882343CC8823431843108210BD002124
:103D9000018041808180C180704721B1828942F4D5
:103DA0000052828104E082894DF6FF731A408281BD
:103DB0007047F0B50346002400260025002040F699
:103DC0006A17B94200D100BF1846C1F3421401F08E
:103DD0001F06012707FA06F5012C01D10C3004E07B
:103DE000022C01D1103000E014301AB107682F43C3
:103DF000076002E00768AF430760F0BD1AB1838A2D
:103E00000B43838202E0838A8B4383827047028A5A
:103E10004FF6F0731A400282028A0A430282704708
:103E200082894FF2FF731A40828182890A4382811C
:103E3000704721B1828942F00202828104E08289C6
:103E40004FF6FD731A4082817047028A4FF6DF7386
:103E50001A400282028A0A430282704721B1028A12
:103E600042F48042028204E0028A4BF6FF731A4059
:103E700002827047C1F30802828070470146888839
:103E8000C0F308007047818941F0010181817047CA
:103E9000028BD2B20283028B42EA01220283704774
:103EA000028B02F47F420283028B0A430283704733
:103EB00021B1828A42F02002828204E0828A4FF697
:103EC000DF731A408282704721B1828A42F0100269
:103ED000828204E0828A4FF6EF731A408282704732
:103EE00021B1828A42F00802828204E0828A4FF67F
:103EF000F7731A408282704721B1828942F40042EE
:103F0000828103E08289C2F30E028281704721B16F
:103F1000828A42F40062828204E0828A4FF2FF7356
:103F20001A4082827047828A4FF6FB731A4082825F
:103F3000828A0A438282704721B1828A42F0020259
:103F4000828204E0828A4FF6FD731A4082827047B3
:103F500002460020B1F5007F00D100BF13880B405E
:103F60000BB1012000E00020704701F40072B2F5AF
:103F7000007F00D100BFCA430280704770B502467F
:103F8000002400230025002040F66A16B14200D12B
:103F900000BFC1F3421501F01F03012606FA03F327
:103FA000012D02D19689334006E0022D02D1168AF6
:103FB000334001E0968A33400C12012606FA04F4DD
:103FC0001688344013B10CB1012000E0002070BD10
:103FD00010B50022002340F66A14A14200D100BFB0
:103FE0000A1201249440A3B2DC43048010BD0000F7
:103FF000003801400044004000480040004C0040B0
:104000000050004031490143314A1160704770B59A
:10401000002100230F22C47804B32D4C246804F43B
:10402000E064C4F5E064210AC1F10403CA404478A5
:1040300004FA03F18478144021430901254C0678E1
:10404000A155047804F01F050124AC4005786D11DA
:10405000AD0005F1E025C5F8004109E0047804F061
:104060001F050124AC401C4D0678761145F826400A
:1040700070BD1A4A0A400243154B1B1F1A60704755
:1040800039B1134A121D12680243114B1B1D1A60ED
:1040900006E00F4A121D126882430D4B1B1D1A6069
:1040A0007047042808D14FF0E021096941F004016C
:1040B0004FF0E022116107E04FF0E021096921F0A3
:1040C00004014FF0E0221161704700000000FA0582
:1040D0000CED00E000E400E080E100E080FFFF1F65
:1040E00010B50446FA48844208D101214015FFF773
:1040F0003BFD00216015FFF737FD17E0F5488442CE
:1041000008D101210015FFF72FFD00212015FFF731
:104110002BFD0BE0F048844208D10121C803FFF7D2
:1041200023FD00214FF40040FFF71EFD10BD30B508
:104130000246002000235068E84C20400D790C68AE
:1041400044EA0524204350609068E54C2040D1E9C2
:1041500002542C434D7944EA450420439060D06AD0
:1041600020F470000C7C641EE4B2234340EA035048
:10417000D06230BD00210160017141718160C16078
:1041800001210174704721B1826842F0010282600E
:1041900003E0826822F001028260704721B18268E8
:1041A00042F48072826003E0826822F4807282604E
:1041B000704710B50023CBB21AB144681C43446069
:1041C00002E044689C43446010BD816841F00801EE
:1041D00081607047014600208A6802F008020AB137
:1041E000012000E000207047816841F004018160F7
:1041F0007047014600208A6802F004020AB10120DB
:1042000000E00020704721B1826842F4A002826081
:1042100003E0826822F4A002826070470146002019
:104220008A6802F480020AB1012000E00020704791
:1042300010B50A4600210023416821F46041531E55
:1042400041EA4331416010BD21B1426842F400624D
:10425000426003E0426822F4006242607047F0B5B9
:1042600004460D4600200021092D11DDE068A5F16E
:104270000A0606EB4607072606FA07F18843A5F16A
:104280000A0606EB460603FA06F10843E0600CE076
:10429000206905EB4507072606FA07F1884305EB79
:1042A000450603FA06F108432061072A0FDA606B1E
:1042B000561E06EB86071F2606FA07F18843561E90
:1042C00006EB860605FA06F10843606322E00D2A34
:1042D0000FDA206BD61F06EB86071F2606FA07F1BA
:1042E0008843D61F06EB860605FA06F108432063CD
:1042F00010E0E06AA2F10D0606EB86071F2606FA1B
:1043000007F18843A2F10D0606EB860605FA06F1D1
:104310000843E062F0BD21B1826842F480128260FD
:1043200003E0826822F48012826070470146C86C04
:1043300080B2704766484C300068704721B14268CF
:1043400042F48062426003E0426822F4806242608C
:10435000704721B1426842F48052426003E04268F3
:1043600022F48052426070470A460021816821F49D
:10437000E04111438160704721B1826842F40042FC
:10438000826003E0826822F400428260704721B1BB
:10439000826842F40212826003E0826822F4021210
:1043A00082607047014600208A6802F400120AB158
:1043B000012000E000207047F0B5044615460020BB
:1043C00000220026092911DDE068A1F10A0707EBA8
:1043D000470C072707FA0CF29043A1F10A0707EBF5
:1043E000470703FA07F21043E0600CE0206901EB95
:1043F000410C072707FA0CF2904301EB410703FA3F
:1044000007F210432061A06BC0F30156EF1C06F1C8
:10441000010CA7EB0C0707EB870C1F2707FA0CF220
:104420009043EF1C06F1010CA7EB0C0707EB870785
:1044300001FA07F21043A063F0BD10B50A4600214F
:104440000023816B21F44011531E41EA0351816323
:1044500010BD08B5002300930090009B0B4400930F
:10446000009B1A6008BD08B502460020009000922B
:1044700001F12800009B184400900098006880B269
:1044800008BD0A4600214168164B1940114341609E
:1044900070474162826270470A460021416821F0FC
:1044A0001F0111434160704740B109490831096853
:1044B00041F40001064A0832116007E0044908315E
:1044C000096821F40001024A0832116070470000B7
:1044D0000024014000280140003C0140FFFEF0FFA5
:1044E000FDF7F1FFFFFD3FFF0246002013680B4080
:1044F0000BB1012000E000207047CA430260704702
:1045000070B502460020002300240B125568CEB27D
:1045100005EA060415681D4015B10CB1012000E044
:10452000002070BD00220A12D343036070470000D0
:1045300010B50446FE48844208D10121C014FFF79B
:1045400013FB0021E014FFF70FFBC4E0B4F1804F30
:1045500008D101210846FFF714FB00210120FFF7D5
:1045600010FBB8E0F348844208D101210220FFF794
:1045700008FB00210220FFF704FBACE0EE48844278
:1045800008D101210420FFF7FCFA00210420FFF7E5
:10459000F8FAA0E0E948844208D101210820FFF799
:1045A000F0FA00210820FFF7ECFA94E0E448844296
:1045B00008D101211020FFF7E4FA00211020FFF7B5
:1045C000E0FA88E0DF48844208D101212020FFF78B
:1045D000D8FA00212020FFF7D4FA7CE0DA488442A0
:1045E00008D101214014FFF7BFFA00216014FFF742
:1045F000BBFA70E0D548844209D10121C804FFF715
:10460000B3FA00214FF40020FFF7AEFA63E0D04880
:10461000844209D101210805FFF7A6FA00214FF4D1
:104620008010FFF7A1FA56E0CA48844209D101215F
:104630004805FFF799FA00214FF40010FFF794FAAC
:1046400049E0C548844208D101214020FFF799FA8A
:1046500000214020FFF795FA3DE0C048844208D190
:1046600001218020FFF78DFA00218020FFF789FAD1
:1046700031E0BB48844208D101218015FFF781FA5F
:104680000021A015FFF77DFA25E0B648844209D144
:1046900001210804FFF768FA00214FF48030FFF78A
:1046A00063FA18E0B048844209D101214804FFF7B9
:1046B0005BFA00214FF40030FFF756FA0BE0AB48ED
:1046C000844208D101218804FFF74EFA00214FF4FB
:1046D0008020FFF749FA10BD00220288944B9842CF
:1046E0000ED0994B98420BD0B0F1804F08D0914B2F
:1046F000984205D0904B984202D0904B984204D1FA
:104700004FF68F731A404B881A438D4B984207D04F
:104710008C4B984204D04FF6FF431A40CB881A4383
:1047200002808B8883850B880385814B98420BD050
:10473000854B984208D08B4B984205D08A4B9842C3
:1047400002D08A4B984201D10B7A038601238382DF
:10475000704770B5002400220023058C4FF6FE76CA
:1047600035400584028C8388048B4FF68F752C406E
:10477000B51E2C400D882C43751E2A400D892A43F6
:104780004D882A436A4DA8420BD06F4DA84208D0ED
:10479000744DA84205D0744DA84202D0734DA84272
:1047A00013D14FF6F7752A404D892A434FF6FB7512
:1047B0002A408D882A434FF6FF652B404FF6FF5560
:1047C0002B408D892B43CD892B4383800483CD8857
:1047D0008586028470BD70B5002400220023058CFC
:1047E0004FF6EF7635400584028C8388048B48F6BB
:1047F000FF752C404FF6FF452C400D884FF6FF7695
:1048000006EA05252C434FF6DF752A400D8906EA96
:1048100005152A434D8806EA05152A43444DA8424A
:1048200002D0494DA8421DD14FF67F752A404D89CF
:104830004FF6FF7606EA05152A434FF6BF752A4064
:104840008D8806EA05152A434FF6FF352B404FF2B7
:10485000FF752B408D8906EA85052B43CD8906EA35
:1048600085052B4383800483CD880587028470BD32
:1048700070B5002400220023058C4FF6FF663540FA
:104880000584028C8388848B4FF68F752C404FF6FD
:10489000FC752C400D882C434FF6FF552A400D899E
:1048A0004FF6FF7606EA05252A434D8806EA0525D8
:1048B0002A431F4DA84202D0234DA8421DD14FF2DA
:1048C000FF752A404D894FF6FF7606EA05252A43F3
:1048D0004FF6FF352A408D8806EA05252A434EF615
:1048E000FF752B404DF6FF752B408D8906EA0515A7
:1048F0002B43CD8906EA05152B4383808483CD881D
:104900008587028470BD70B5002200230024058CC9
:104910004EF6FF7635400584038C8488828B48F6FA
:10492000FF752A404FF6FF452A400D8820E0000021
:10493000002C01400004004000080040000C004032
:10494000001000400014004000340140004C0140C1
:10495000005001400054014000180040001C00407D
:104960000020004000400140004401400048014058
:104970004FF6FF7606EA05252A434DF6FF752B40D4
:104980000D8906EA05352B434D8806EA05352B438C
:10499000FA4DA84202D0FA4DA84208D14BF6FF7555
:1049A0002C408D894FF6FF7606EA85152C438480CE
:1049B0008283CD88A0F84050038470BD828B4FF273
:1049C000FF331A408283828B4FF6FF7303EA012381
:1049D0001A4382837047F0B50C4615460022002129
:1049E0000026078C4EF6FF7C07EA0C070784828BB3
:1049F000018C4FF6FF7707EA043640F6FF473A404E
:104A00004FF6FF7707EA05273A434FF6FF7707EAA5
:104A100003373A43D94FB8420ED0D94FB8420BD0E2
:104A2000B0F1804F08D0D74FB84205D0D64FB8422A
:104A300002D0D64FB84206D14DF6FF77394046F442
:104A40008057394305E047F6FF57394044F4805713
:104A5000394382830184F0BD828B4FF6F3731A4091
:104A60008283828B0A4382837047F0B50C461546D9
:104A7000002200210026078C4FF6FF6C07EA0C0786
:104A80000784828B018C4FF6FF7707EA04264FF6E6
:104A90000C773A404FF6FF7707EA03172F433A4364
:104AA000B64FB8420ED0B64FB8420BD0B0F1804FDF
:104AB00008D0B44FB84205D0B34FB84202D0B34F7C
:104AC000B84206D14FF6FF57394046F48077394354
:104AD00005E04FF2FF57394044F480773943828331
:104AE0000184F0BD028B4FF2FF331A400283028B28
:104AF0004FF6FF7303EA01231A4302837047F0B5B0
:104B00000C461546002200210026078C4FF6EF7C4C
:104B100007EA0C070784028B018C4FF6FF7707EA40
:104B2000041640F6FF473A404FF6FF7707EA03378F
:104B30003A434FF6FF7707EA05273A438F4FB842CB
:104B40000ED08F4FB8420BD0B0F1804F08D08D4FB0
:104B5000B84205D08C4FB84202D08C4FB84206D133
:104B60004FF6DF77394046F01007394305E04FF63E
:104B70005F77394044F01007394302830184F0BD68
:104B8000028B4FF6F3731A400283028B0A430283AF
:104B90007047F0B50C46154600220021068C4FF6F2
:104BA000FE773E400684028B018C4FF60C76324035
:104BB0007E1C06EA03162E433243704EB0420ED0DE
:104BC0006F4EB0420BD0B0F1804F08D06D4EB04266
:104BD00005D06D4EB04202D06C4EB04206D14FF6B9
:104BE000FD76314044F00106314305E04FF6F5769D
:104BF000314044F00106314302830184F0BD70B5B9
:104C000005460C465D4885420ED05D4885420BD076
:104C1000B5F1804F08D05B48854205D05A4885429F
:104C200002D05A48854200D100E000BF208850B928
:104C30002389A28861882846FFF7ABFFE1882846D0
:104C4000FFF79EFF25E0208804280AD12389A28847
:104C500061882846FFF753FFE1882846FFF742FFA7
:104C600017E0208808280AD12389A288618828466D
:104C7000FFF7FBFEE1882846FFF7EEFE09E02389F7
:104C8000A28861882846FFF7A6FEE1882846FFF73C
:104C900095FE70BD2DE9F04105460C460026012722
:104CA000608808B9022600E00026A088012801D10A
:104CB000022700E001272088A0B92389A288618803
:104CC0002846FFF766FFE1882846FFF759FF23894A
:104CD0003A4631462846FFF712FFE1882846FFF79B
:104CE00001FF13E02389A28861882846FFF707FFA8
:104CF000E1882846FFF7F6FE23893A4631462846E2
:104D0000FFF747FFE1882846FFF73AFFBDE8F0814B
:104D10000A884B881A438B881A43CB881A430B891D
:104D20001A434B891A438B891A43A0F844207047D1
:104D30004FF6FF71818000210180C18041800172A6
:104D400070470021018041808180C18001814181C3
:104D50008181C181704700210180418001218180D2
:104D60000021C18001817047002101804180818044
:104D7000C18001814181818170470000002C014088
:104D8000003401400004004000080040000C0040D6
:104D900021B1028842F00102028004E002884FF64D
:104DA000FE731A400280704731B1B0F8442042F4DB
:104DB0000042A0F8442005E0B0F84420C2F30E02FF
:104DC000A0F8442070471AB183890B43838102E025
:104DD00083898B43838170478182704741EA020354
:104DE000A0F8483070471AB183890B43838102E0F1
:104DF00083898B438381704701894FF6F872114094
:104E0000018170470A46002101894FF68F731940CE
:104E100011430181704730B504460D4629462046AE
:104E2000FFF7F0FF208940F00700208130BD2DE919
:104E3000F04104460D4616461F46602D06D13B46FE
:104E4000012231462046FFF75AFE05E03B4601228B
:104E500031462046FFF79DFE29462046FFF7D2FF48
:104E6000208940F007002081BDE8F08130B50C4674
:104E700000210189C9B24FF6FF7505EA03251543E4
:104E800025432943018130BD2DE9F04105460E46F9
:104E900017469846002443463A4631462846FFF7CF
:104EA000E5FF2C894FF6F870044044F007044FF6F4
:104EB0008F70044044F070042C81BDE8F081F0B59F
:104EC00004460D4616461F463B46324629462046B6
:104ED000FFF7CCFF208940F480402081F0BD0185A0
:104EE000828270470A46002101884FF68F7319406D
:104EF000114301807047F0B50C4615461E4600214F
:104F0000002200230189028B038C4FF6F877394089
:104F100021434FF6FC473A4040F201173A434FF61F
:104F2000DD773B404FF6FF7707EA06172F433B43F9
:104F3000018102830384F0BD0A460021018B4FF6F4
:104F40008F7319401143018370470A460021018B7A
:104F500048F6FF7319404FF6FF7303EA0223194323
:104F6000018370470A460021818B4FF68F731940E9
:104F70001143818370470A460021818B48F6FF73F5
:104F800019404FF6FF7303EA0223194381837047E8
:104F900021B1028842F08002028004E002884FF6CC
:104FA0007F731A400280704721B1828842F0040268
:104FB000828004E082884FF6FB731A40828070473B
:104FC00021B1828842F00802828004E082884FF694
:104FD000F7731A408280704721B1828842F0010243
:104FE000828004E082884FF6FE731A408280704708
:104FF0000A460021018B4FF6F773194011430183D4
:1050000070470A460021018B4FF2FF7319404FF69B
:10501000FF7303EA02231943018370470A46002104
:10502000818B4FF6F77319401143818370470A460D
:105030000021818B4FF2FF7319404FF6FF7303EA93
:1050400002231943818370470A460021018B4FF6E2
:10505000FB7319401143018370470A460021018BFD
:105060004FF6FF3319404FF6FF7303EA022319434B
:10507000018370470A460021818B4FF6FB7319406C
:105080001143818370470A460021818B4FF6FF331D
:1050900019404FF6FF7303EA0223194381837047D7
:1050A0000A460021018B4FF67F731940114301839B
:1050B00070470A460021018BC1F30E014FF6FF73C2
:1050C00003EA02231943018370470A460021818BBA
:1050D0004FF67F7319401143818370470A460021C0
:1050E000818BC1F30E014FF6FF7303EA02231943CC
:1050F000818370470A460021018C4FF6FD731940E9
:105100001143018470470A460021018C4FF6F77362
:1051100019401143018470470A460021018C4FF663
:10512000DF7319404FF6FF7303EA0213194301843A
:1051300070470A460021018C4FF67F7319404FF6E5
:10514000FF7303EA02131943018470470A460021E2
:10515000018C4FF6FF5319404FF6FF7303EA022309
:105160001943018470470A460021018C4FF2FF73F6
:1051700019404FF6FF7303EA022319430184704775
:105180000A460021018C4DF6FF7319404FF6FF735C
:1051900003EA023319430184704730B50023012428
:1051A0008C40A3B2048C9C430484048C02FA01F565
:1051B000ADB22C43048430BD30B5002304248C40B0
:1051C000A3B2048C9C430484048C02FA01F5ADB2B2
:1051D0002C43048430BD70B50346002000241846DB
:1051E000183001258D40ACB21D8CA5431D8409B13A
:1051F000082909D100EB6100056825F070050560FC
:105200000568154305600EE00D1FC5F34E052844E3
:10521000056825F4E045056005684FF6FF7606EA67
:1052200002263543056070BD21B1028842F00202BA
:10523000028004E002884FF6FD731A400280704736
:1052400021B1028842F00402028004E002884FF695
:10525000FB731A400280704721B1828842F08002BD
:10526000828004E082884FF67F731A408280704704
:1052700002884FF6F7731A40028002880A430280C0
:10528000704782884FF68F731A40828082880A4363
:105290008280704702894FF6F8731A4002810289B2
:1052A0000A430281704702894FF67F731A400281D8
:1052B00002890A4302817047818470478185704763
:1052C000818670470187704781877047A0F840103A
:1052D000704702884FF6FF431A40028002880A4353
:1052E000028070470146888E70470146088F7047DC
:1052F0000146888F70470146B1F84000704701466B
:10530000888C70470146088D704702460020138A3A
:105310000B400BB1012000E000207047CA4302821D
:10532000704730B50246002000230024158A05EAA4
:105330000103958905EA010413B10CB1012000E0D5
:10534000002030BDCA4302827047000029B1504A94
:10535000128802434E4B1A8004E04D4A1288824361
:105360004B4B1A8070474A48001D008840F01000DF
:105370004749091D088070474548001D00884FF6C1
:10538000EF7108404249091D0880704700214048DC
:105390001C300188001F008841EA0040704700B5BA
:1053A0000246FFF7E0FF100C394918310880091D4B
:1053B0000A80FFF7E1FF00BD00B50246FFF7D3FF0B
:1053C000C2F30340324908310880091D0A80FFF703
:1053D000D3FF00BD00B50246FFF7C5FF100C2C49F6
:1053E00020310880091D0A80FFF7C6FF00BD00209C
:1053F0002749103109880907080B25491431098804
:105400000843704700BF2248001D008800F02000BC
:105410000028F8D070471E48001D00884FF6F7712D
:1054200008401B49091D088000BF1948001D00885D
:1054300000F008000028F8D0704701460020144A08
:10544000121D12880A400AB1012000E000207047B6
:105450000F49091D098881430D4A121D11807047AB
:10546000014600200A4A121D12880A40D0B2084A9A
:1054700012880A4012B108B1012000E000207047F4
:105480000349091D09888143014A121D1180704793
:105490000028004010B501210807FEF772FB00212B
:1054A0004FF08050FEF76DFB10BD2A49086270472F
:1054B00028490861704701460020274A106820F0FB
:1054C000E0000843106070472249A031086070472F
:1054D00010B502460020204B186820F0030010434E
:1054E00018601E4B1B6843F004031C4C2360012909
:1054F00001D130BF00E020BF184B1B6823F004032C
:10550000164C236010BD1448006840F00400124996
:1055100008600846006840F0020008600F48006814
:1055200040F004000D49086000BF00BF30BF704765
:1055300001460020084A52680A400AB1012000E0F2
:10554000002070470449096841EA8001024A11605D
:105550007047000000000E420070004010ED00E0B7
:1055600010B50120FEF71AFB0020FEF717FB10BD57
:105570002A49086070472949091F08607047274970
:1055800084310860704701460020254A10884FF694
:105590007F4210400843224A108070470146002095
:1055A0001F4A10884FF68072104008431C4A108032
:1055B000704708B500220092194A2C3A0092009ACE
:1055C00002440092009A116008BD08B5014600200F
:1055D000009013482C3800900098084400900098E0
:1055E000008808BD0D489C300068C0B270470C4868
:1055F0000830008840F001000949083108807047F0
:105600000648A0300068C0B27047054808300088DE
:1056100040F00200024908310880704704860D42BC
:105620002C6C0040704700001CB50C46064B7B44B8
:1056300069460090204600F01EFA044600206946A4
:1056400000F02CFA20461CBD6B0400000FB4044986
:1056500010B503AA029800F027FA10BC5DF814FBFD
:105660009C0000202DE9F0410646002410687529B1
:10567000314616A510D000F051F9002802DA404258
:1056800013A507E031688A0701D512A502E0490792
:1056900004D511A5012401E000F049F900210A22F6
:1056A00006F1240709E0B0FBF2FCB0FBF2F302FBC9
:1056B0001C00303078541846491C0028F3D123468A
:1056C0002A463046BDE8F04100F063B90000000012
:1056D0002D0000002B000000200000002DE9F05FED
:1056E000894604464FF0000ADFF874B1FB44C0F865
:1056F00020A02046E1688847002874D0252806D0DD
:10570000D4E901219047206A401C2062F1E700267D
:105710005F462046E16888472028054607DB312D93
:1057200005D2781910F8200C08B10643F1E7B0074C
:1057300001D526F00406C4F81CA00027C4F818A060
:105740002A2D09D0284601F07EFA38B304EB8708E9
:10575000303DC8F8185019E059F8041B204604EBF6
:1057600087029161E1688847012F054618D1E069F9
:10577000002820DA26F020061DE0D8F8180000EBFB
:10578000800005EB40003038C8F818002046E1687A
:105790008847054601F057FA0028EED1012F0AD0BC
:1057A0002E2D08D12046E16888477F1C0546022F30
:1057B00046F02006C4DBA069002803DA404246F028
:1057C0000106A061F00701D026F010066C2D0BD069
:1057D000682D09D04C2D39D06A2D35D0742D35D097
:1057E0007A2D33D016E038E0E1682F46204688470E
:1057F000B842054609D16C2F26D04FF48060E1688D
:10580000064320468847054604E06C2F1AD04FF423
:10581000807006430DB3A5F14100192802D8203548
:1058200046F400664A462946204626604E46FAF768
:10583000B9FC80B101280BD0F61D26F0070000F15D
:10584000080956E74020E4E78020D8E70020D6E7A3
:1058500006F104094DE7284652E7206ABDE8F09FAB
:10586000701E000030B505460B462A4613F8014B62
:1058700012F8010B08B1A042F8D01CB1002802D0E8
:105880006D1CF1E7284630BD10B5431C02E010F84E
:10589000011B71B18107FAD14FF0013202C88C1A95
:1058A0008C4314EAC211F9D0C01A0A0603D0C01EF4
:1058B00010BDC01A10BD0A0401D0801E10BD09021F
:1058C000FCD0401E10BD704770477047704770B5E0
:1058D000044685690068C10601D5302600E020260F
:1058E000C00707D070BDD4E9012130469047206A37
:1058F000401C20626D1EF6D570BD70B504468569EA
:105900000078C00707D170BDD4E90121202090475D
:10591000206A401C20626D1EF6D570BD09684A05DC
:1059200001D540B27047C905FCD500B2704709687F
:105930004A0501D5C0B27047C905FCD580B2704791
:1059400070B50C460546012A05D02878800600D59A
:10595000EA69002302E0012305E05B1C934202D2C6
:10596000E05C0028F9D1A869E618C01AA861286A85
:10597000184428622846FFF7AAFF04E0D5E9012170
:1059800014F8010B9047B442F8D32846FFF7B5FF4F
:1059900070BD2DE9F0470D4699469246044600F148
:1059A00024080168880604D5E06921F0100121600F
:1059B00000E00120A84201DD471B00E00027A169AB
:1059C0007A1902EB0900081AA0612078C00602D4F7
:1059D0002046FFF77CFF002608E0D4E901211AF8F1
:1059E00006009047206A401C761C20624E45F4DB7E
:1059F0002078C0060AD52046FFF769FF06E0D4E903
:105A0000012130209047206A401C2062381EA7F1F7
:105A10000107F4DC07E0D4E9012118F805009047FC
:105A2000206A401C2062281EA5F10105F3DC2046F7
:105A3000FFF763FF2078000602D50220BDE8F0875B
:105A40000120FBE711680268006A530501D5087060
:105A50000AE0D30501D5088006E0130603D5C21776
:105A6000C1E9000200E008600120704701694A1C9A
:105A700002610878704700B58FB0CDE9013100218F
:105A8000059105497944CDE9031011466846FFF7B1
:105A900025FE0FB000BD0000E5FFFFFF0A6802F819
:105AA000010B0A6070470000074B70B50D467B4440
:105AB000FFF7E1FF0446284600F0A4FB10B14FF0C9
:105AC000FF3070BD204670BD29D8FFFF2DE9FF5F74
:105AD00015468A460446DFF8AC80F8440027D8E92A
